{
  "_format": "hh-sol-artifact-1",
  "contractName": "HelloWorld",
  "sourceName": "contracts/HelloWorld.sol",
  "abi": [
    {
      "inputs": [
        {
          "internalType": "string",
          "name": "_name",
          "type": "string"
        }
      ],
      "stateMutability": "nonpayable",
      "type": "constructor"
    },
    {
      "inputs": [],
      "name": "sayHello",
      "outputs": [
        {
          "internalType": "string",
          "name": "",
          "type": "string"
        }
      ],
      "stateMutability": "view",
      "type": "function"
    },
    {
      "inputs": [
        {
          "internalType": "string",
          "name": "_name",
          "type": "string"
        }
      ],
      "name": "setName",
      "outputs": [],
      "stateMutability": "nonpayable",
      "type": "function"
    }
  ],
  "bytecode": "0x60806040526040518060400160405280600d81526020017f48656c6c6f20576f726c642120000000000000000000000000000000000000008152506000908051906020019061004f929190610157565b5034801561005c57600080fd5b506040516105403803806105408339818101604052602081101561007f57600080fd5b810190808051604051939291908464010000000082111561009f57600080fd5b838201915060208201858111156100b557600080fd5b82518660018202830111640100000000821117156100d257600080fd5b8083526020830192505050908051906020019080838360005b838110156101065780820151818401526020810190506100eb565b50505050905090810190601f1680156101335780820380516001836020036101000a031916815260200191505b506040525050508060019080519060200190610150929190610157565b50506101f4565b828054600181600116156101000203166002900490600052602060002090601f016020900481019282601f1061019857805160ff19168380011785556101c6565b828001600101855582156101c6579182015b828111156101c55782518255916020019190600101906101aa565b5b5090506101d391906101d7565b5090565b5b808211156101f05760008160009055506001016101d8565b5090565b61033d806102036000396000f3fe608060405234801561001057600080fd5b50600436106100365760003560e01c8063c47f00271461003b578063ef5fb05b146100f6575b600080fd5b6100f46004803603602081101561005157600080fd5b810190808035906020019064010000000081111561006e57600080fd5b82018360208201111561008057600080fd5b803590602001918460018302840111640100000000831117156100a257600080fd5b91908080601f016020809104026020016040519081016040528093929190818152602001838380828437600081840152601f19601f820116905080830192505050505050509192919290505050610179565b005b6100fe610193565b6040518080602001828103825283818151815260200191508051906020019080838360005b8381101561013e578082015181840152602081019050610123565b50505050905090810190601f16801561016b5780820380516001836020036101000a031916815260200191505b509250505060405180910390f35b806001908051906020019061018f92919061026a565b5050565b60606000600160405160200180838054600181600116156101000203166002900480156101f75780601f106101d55761010080835404028352918201916101f7565b820191906000526020600020905b8154815290600101906020018083116101e3575b5050828054600181600116156101000203166002900480156102505780601f1061022e576101008083540402835291820191610250565b820191906000526020600020905b81548152906001019060200180831161023c575b505092505050604051602081830303815290604052905090565b828054600181600116156101000203166002900490600052602060002090601f016020900481019282601f106102ab57805160ff19168380011785556102d9565b828001600101855582156102d9579182015b828111156102d85782518255916020019190600101906102bd565b5b5090506102e691906102ea565b5090565b5b808211156103035760008160009055506001016102eb565b509056fea2646970667358221220da29336dc9d74e4b2159f05d19c53c8774fe7466818e6871e03a443611f4c27264736f6c63430007030033",
  "linkReferences": {},
  "deployedLinkReferences": {}
}